:100000000EC01DC01CC01BC01AC01AC018C017C02B
:1000100016C015C014C013C012C011C010C01124E6
:100020001FBECFE5D1E0DEBFCDBF20E0A0E6B0E04F
:1000300001C01D92A936B207E1F74CD07CC0E0CFD9
:100040001F920F920FB60F9211242F933F938F930D
:100050009F93AF93BF938091650090916600A091AC
:100060006700B09168003091640026E0230F2D37BF
:1000700058F50296A11DB11D209364008093650080
:1000800090936600A0936700B09368008091600031
:1000900090916100A0916200B09163000196A11D52
:1000A000B11D8093600090936100A0936200B093B3
:1000B0006300BF91AF919F918F913F912F910F90CE
:1000C0000FBE0F901F90189529E8230F0396A11DCE
:1000D000B11DD2CF78948AB582608ABD8AB581601D
:1000E0008ABD83B7826083BF83B7816083BF89B7CE
:1000F000826089BF80B7826080BF80B7816080BF27
:10010000329A319A3098379A80E187BB379A87B113
:10011000836987B9C0E0D0E0369A3699FECF84B1C2
:1001200095B1883F97402CF0C49A2097A9F368DFD7
:0A013000F3CFC498FACFF894FFCF84
:00000001FF
